:100000000C9462000C944A080C9471080C948A00B9
:100010000C948A000C948A000C948A000C94AF060D
:100020000C948A000C948A000C948A000C948A0028
:100030000C948A000C948A000C948A000C948A0018
:100040000C9498080C948A000C948A000C948A00F2
:100050000C948A000C948A000C948A000C948A00F8
:100060000C948A000C948A00000000080002010031
:100070000003040700000000000000000102040863
:100080001020408001020408102001020408102002
:10009000040404040404040402020202020203032E
:1000A00003030303000000002300260029000000D2
:1000B0000000250028002B0000000000240027007D
:1000C0002A00660111241FBECFEFD8E0DEBFCDBFEE
:1000D00011E0A0E0B1E0EAE2F5E102C005900D9286
:1000E000A231B107D9F724E0A2E1B1E001C01D922D
:1000F000A838B207E1F710E0C4ECD0E004C02297C2
:10010000FE010E948F0AC23CD107C9F70E943C0A37
:100110000C94930A0C940000089540E050E06CE8C1
:1001200070E080E00E94180869E170E080E090E0F3
:100130000E94050983B7817F846083BF83B7816094
:1001400083BF83B7816083BF889583B78E7F83BF6A
:1001500083B78E7F83BF089562E080910C010E9477
:10016000A30961E080910A010E94A30962E084E092
:100170000E94A30962E085E00E94A30962E086E094
:100180000E94A30962E087E00E94A30962E088E080
:100190000E94A30962E089E00E94A30962E08AE06C
:1001A0000E94A30962E08BE00E94A30962E08CE058
:1001B0000C94A30980E00E94380884E00E94120A8F
:1001C000892B51F426E230E045E250E066EA71E026
:1001D0008CEA93E00E94E70785E00E94120A892BCF
:1001E00051F426E230E045E250E06CE571E08CEA43
:1001F00093E00E94E70786E00E94120A892B51F4DF
:1002000026E230E045E250E062E171E08CEA93E002
:100210000E94E70787E00E94120A892B51F426E228
:1002200030E045E250E062E673E08CEA93E00E9441
:10023000E70788E00E94120A892B51F426E230E099
:1002400045E250E068E173E08CEA93E00E94E70742
:1002500089E00E94120A892B51F426E230E045E23F
:1002600050E06EEC72E08CEA93E00E94E7078AE0CF
:100270000E94120A892B51F426E230E045E250E058
:1002800064E872E08CEA93E00E94E7078BE00E944A
:10029000120A892B51F426E230E045E250E06AE38D
:1002A00072E08CEA93E00E94E7078CE00E94120A59
:1002B000892B51F426E230E045E250E060EF71E036
:1002C0008CEA93E00E94E7070C948D00E091020114
:1002D000F0910301F0936303E093620380910801BE
:1002E0009091090190936503809364032091040128
:1002F000309105013093670320936603909369035F
:100300008093680330936B0320936A0390936D038B
:1003100080936C0330936F0320936E03909371036B
:10032000809370033093730320937203909375034B
:100330008093740340910601509107015093770315
:1003400040937603909379038093780350937B03D3
:1003500040937A0390937D0380937C0330937F03D3
:1003600020937E03909381038093800330938303D3
:100370002093820390938503809384035093870393
:1003800040938603909389038093880350938B0353
:1003900040938A0390938D0380938C0350938F0333
:1003A00040938E0390939103809390035093930313
:1003B0004093920390939503809394033093970313
:1003C00020939603909399038093980330939B0313
:1003D00020939A0390939D0380939C0350939F03D3
:1003E00040939E039093A1038093A0035093A30393
:1003F0004093A2039093A5038093A4033093A70393
:100400002093A6039093A9038093A8036091000111
:10041000709101017093AB036093AA03F0931903E9
:10042000E093180390931B0380931A0330931D03EA
:1004300020931C0390931F0380931E03309321038A
:10044000209320039093230380932203309325036A
:10045000209324039093270380932603309329034A
:100460002093280390932B0380932A0350932D030A
:1004700040932C0390932F0380932E0350933103CA
:1004800040933003909333038093320330933503CA
:1004900020933403909337038093360330933903CA
:1004A0002093380390933B0380933A0330933D03AA
:1004B00020933C0390933F0380933E03509341036A
:1004C000409340039093430380934203509345032A
:1004D000409344039093470380934603509349030A
:1004E0004093480390934B0380934A0330934D030A
:1004F00020934C0390934F0380934E03309351030A
:1005000020935003909353038093520350935503C9
:100510004093540390935703809356035093590389
:100520004093580390935B0380935A0350935D0369
:1005300040935C0390935F0380935E037093610329
:1005400060936003F093CF02E093CE029093D102C8
:100550008093D0023093D3022093D2029093D5029D
:100560008093D4023093D7022093D6029093D9027D
:100570008093D8023093DB022093DA029093DD025D
:100580008093DC023093DF022093DE029093E1023D
:100590008093E0025093E3024093E2029093E502DD
:1005A0008093E4023093E7022093E6029093E902FD
:1005B0008093E8025093EB024093EA029093ED029D
:1005C0008093EC023093EF022093EE029093F102BD
:1005D0008093F0025093F3024093F2029093F5025D
:1005E0008093F4025093F7024093F6029093F9023D
:1005F0008093F8025093FB024093FA029093FD021D
:100600008093FC025093FF024093FE0290930103FB
:100610008093000330930303209302039093050318
:1006200080930403509307034093060390930903B8
:100630008093080330930B0320930A0390930D03D8
:1006400080930C0350930F0340930E039093110378
:100650008093100330931303209312039093150398
:10066000809314037093170360931603F09385022D
:10067000E0938402909387028093860230938902EC
:100680002093880290938B0280938A0230938D028C
:1006900020938C0290938F0280938E02309391026C
:1006A000209390029093930280939202309395024C
:1006B000209394029093970280939602509399020C
:1006C0004093980290939B0280939A0230939D02EC
:1006D00020939C0290939F0280939E025093A102CC
:1006E0004093A0029093A3028093A2025093A5028C
:1006F0004093A4029093A7028093A6023093A9028C
:100700002093A8029093AB028093AA025093AD026B
:100710004093AC029093AF028093AE025093B1022B
:100720004093B0029093B3028093B2025093B5020B
:100730004093B4029093B7028093B6023093B9020B
:100740002093B8029093BB028093BA025093BD02EB
:100750004093BC029093BF028093BE023093C102CB
:100760002093C0029093C3028093C2023093C502CB
:100770002093C4029093C7028093C6025093C9028B
:100780004093C8029093CB028093CA027093CD022B
:100790006093CC02F0933B02E0933A0290933D02C7
:1007A00080933C0230933F0220933E02909341029B
:1007B000809340023093430220934202909345027B
:1007C000809344023093470220934602909349025B
:1007D0008093480230934B0220934A0290934D023B
:1007E00080934C0250934F0240934E0290935102DB
:1007F00080935002309353022093520290935502FB
:10080000809354025093570240935602909359029A
:100810008093580230935B0220935A0290935D02BA
:1008200080935C0230935F0220935E02909361029A
:10083000809360025093630240936202909365023A
:10084000809364025093670240936602909369021A
:100850008093680250936B0240936A0290936D02FA
:1008600080936C0230936F0220936E02909371021A
:1008700080937002509373024093720290937502BA
:1008800080937402309377022093760290937902DA
:100890008093780250937B0240937A0290937D027A
:1008A00080937C0250937F0240937E02909381025A
:1008B000809380027093830260938202F093F1012F
:1008C000E093F0019093F3018093F2013093F501EE
:1008D0002093F4019093F7018093F6013093F9018E
:1008E0002093F8019093FB018093FA013093FD016E
:1008F0002093FC019093FF018093FE01309301024D
:100900002093000290930302809302025093050209
:1009100040930402909307028093060230930902E9
:100920002093080290930B0280930A0230930D02E9
:1009300020930C0290930F0280930E0230931102C9
:100940002093100290931302809312025093150289
:100950004093140290931702809316025093190249
:100960004093180290931B0280931A0250931D0229
:1009700040931C0290931F0280931E025093210209
:100980004093200290932302809322023093250209
:1009900020932402909327028093260250932902E9
:1009A0004093280290932B0280932A0250932D02A9
:1009B00040932C0290932F0280932E025093310289
:1009C0004093300290933302809332023093350289
:1009D0002093340290933702809336027093390249
:1009E00060933802F093A701E093A6019093A901C8
:1009F0008093A8013093AB012093AA019093AD019D
:100A00008093AC013093AF012093AE019093B1017C
:100A10008093B0013093B3012093B2019093B5015C
:100A20008093B4013093B7012093B6019093B9013C
:100A30008093B8015093BB014093BA019093BD01DC
:100A40008093BC013093BF012093BE019093C101FC
:100A50008093C0013093C3012093C2019093C501DC
:100A60008093C4015093C7014093C6019093C9017C
:100A70008093C8013093CB012093CA019093CD019C
:100A80008093CC015093CF014093CE019093D1013C
:100A90008093D0015093D3014093D2019093D5011C
:100AA0008093D4015093D7014093D6019093D901FC
:100AB0008093D8013093DB012093DA019093DD011C
:100AC0008093DC015093DF014093DE019093E101BC
:100AD0008093E0015093E3014093E2019093E5019C
:100AE0008093E4013093E7012093E6019093E901BC
:100AF0008093E8015093EB014093EA019093ED015C
:100B00008093EC017093EF016093EE01F0935D012F
:100B1000E0935C0190935F0180935E0130936101EB
:100B2000209360019093630180936201309365018B
:100B3000209364019093670180936601309369016B
:100B40002093680190936B0180936A0130936D014B
:100B500020936C0190936F0180936E01509371010B
:100B600040937001909373018093720130937501EB
:100B700020937401909377018093760130937901EB
:100B80002093780190937B0180937A0150937D01AB
:100B900040937C0190937F0180937E01509381016B
:100BA000409380019093830180938201509385014B
:100BB000409384019093870180938601509389012B
:100BC0004093880190938B0180938A0150938D010B
:100BD00040938C0190938F0180938E01309391010B
:100BE00020939001909393018093920150939501EB
:100BF00040939401909397018093960150939901AB
:100C00004093980190939B0180939A0130939D01AA
:100C100020939C0190939F0180939E013093A101AA
:100C20002093A0019093A3018093A2017093A5014A
:100C30006093A401F0931301E093120190931501C6
:100C4000809314013093170120931601909319019A
:100C50008093180130931B0120931A0190931D017A
:100C600080931C0130931F0120931E01909321015A
:100C7000809320013093230120932201909325013A
:100C800080932401509327014093260190932901DA
:100C90008093280130932B0120932A0190932D01FA
:100CA00080932C0150932F0140932E01909331019A
:100CB000809330015093330140933201909335017A
:100CC000809334015093370140933601909339015A
:100CD0008093380150933B0140933A0190933D013A
:100CE00080933C0150933F0140933E01909341011A
:100CF00080934001509343014093420190934501FA
:100D00008093440130934701209346019093490119
:100D10008093480150934B0140934A0190934D01B9
:100D200080934C0130934F0120934E0190935101D9
:100D300080935001309353012093520190935501B9
:100D40008093540130935701209356019093590199
:100D50008093580170935B0160935A0108951F922C
:100D60000F920FB60F9211242F933F934F935F93DF
:100D70006F937F938F939F93AF93BF93EF93FF9363
:100D80008091AE030E94120A2091B2033091B30306
:100D90002F5F3F4F3093B3032093B2039091B10381
:100DA000953618F096E09093AD039091AD03943092
:100DB000C9F128F4923069F09330D1F05EC09530DB
:100DC00009F451C0963009F058C091E090937E0428
:100DD00051C0811152C02091B2033091B303243627
:100DE000310508F442C010927E041092B1031CC079
:100DF000813009F042C0E091B10391E09E0F9093E1
:100E0000B103F0E02091B2033091B303EE0FFF1F66
:100E1000E355FC4F308727831092B3031092B2033F
:100E200094E029C0811117C0E091B10391E09E0FB9
:100E30009093B103F0E02091B2033091B303EE0F31
:100E4000FF1FE355FC4F308727831092B3031092A6
:100E5000B20393E010C02091B2033091B303253662
:100E6000310558F007C0811108C01092B3031092E9
:100E7000B20303C095E09093AD039091B003992322
:100E8000B9F081110AC08091AF03882321F08091CD
:100E9000AF0361E009C02D9A0BC08091AF03882396
:100EA00031F08091AF0360E00E94DC0901C02D9811
:100EB000FF91EF91BF91AF919F918F917F916F9132
:100EC0005F914F913F912F910F900FBE0F901F9008
:100ED0001895CF93DF93EB011092700061E083E0EF
:100EE0000E94A30960E083E00E94DC099E01442780
:100EF00037FD4095542F60EA7FE080E090E00E944B
:100F00004C0A81E08093B00089E08093B100209387
:100F1000B3008BEA289F212D112426952093B4003D
:100F2000DF91CF9108958F929F92AF92BF92CF920F
:100F3000DF92EF92FF926A017B0145305105610516
:100F4000710500F10E94E2084B015C0184E0C81ABF
:100F5000D108E108F108C80CD91CEA1CFB1CC81414
:100F6000D904EA04FB0438F40E94E20886169706C6
:100F7000A806B906C8F30E94E2086C157D058E0527
:100F80009F05C8F3FF90EF90DF90CF90BF90AF9098
:100F90009F908F9008952091B00020622093B00020
:100FA0006115710529F0AB0160E070E00C949307C6
:100FB00008952091B0002F7D2093B0006115710538
:100FC00029F0AB0160E070E00C9493070895CF9294
:100FD000DF92EF92FF920F931F93CF93DF937C01E9
:100FE0008B016A01B9010E946907E80100E010E085
:100FF0000C151D0571F068817981C70100FF03C0E0
:101000000E94CB0702C00E94D9070F5F1F4F229694
:10101000EFCF8091B0008F7D8093B000DF91CF91B2
:101020001F910F91FF90EF90DF90CF90089508955A
:101030008230E8F4E82FF0E0EE0FFF1FE25FFE4F92
:1010400071836083813041F0809169008C7F842BB3
:1010500080936900E89A089580916900440F551FB4
:10106000440F551F837F842B80936900E99A08956C
:10107000823078F4813011F0E89801C0E998E82FC7
:10108000F0E0EE0FFF1FE25FFE4F87E198E09183F3
:10109000808308951F920F920FB60F9211242F9301
:1010A0003F934F935F936F937F938F939F93AF93F0
:1010B000BF93EF93FF93E0910E01F0910F0109951B
:1010C000FF91EF91BF91AF919F918F917F916F9120
:1010D0005F914F913F912F910F900FBE0F901F90F6
:1010E00018951F920F920FB60F9211242F933F93D2
:1010F0004F935F936F937F938F939F93AF93BF9320
:10110000EF93FF93E0911001F09111010995FF9188
:10111000EF91BF91AF919F918F917F916F915F916F
:101120004F913F912F910F900FBE0F901F901895E8
:101130001F920F920FB60F9211242F933F938F930C
:101140009F93AF93BF938091800490918104A0916D
:101150008204B091830430917F0426E0230F2D3761
:1011600020F40296A11DB11D05C029E8230F0396A6
:10117000A11DB11D20937F0480938004909381046E
:10118000A0938204B0938304809184049091850499
:10119000A0918604B09187040196A11DB11D809392
:1011A000840490938504A0938604B0938704BF9130
:1011B000AF919F918F913F912F910F900FBE0F9004
:1011C0001F9018953FB7F8948091840490918504FE
:1011D000A0918604B091870426B5A89B05C02F3F37
:1011E00019F00196A11DB11D3FBF6627782F892FE9
:1011F0009A2F620F711D811D911D43E0660F771FAD
:10120000881F991F4A95D1F708958F929F92AF92A8
:10121000BF92CF92DF92EF92FF926B017C010E940E
:10122000E2084B015C01C114D104E104F104F1F0C6
:101230000E944B0A0E94E208681979098A099B09F1
:10124000683E73408105910570F321E0C21AD10810
:10125000E108F10888EE880E83E0981EA11CB11CFD
:10126000C114D104E104F10429F7DDCFFF90EF9020
:10127000DF90CF90BF90AF909F908F90089578941B
:1012800084B5826084BD84B5816084BD85B582608B
:1012900085BD85B5816085BDEEE6F0E08081816029
:1012A0008083E1E8F0E01082808182608083808129
:1012B00081608083E0E8F0E0808181608083E1EB01
:1012C000F0E0808184608083E0EBF0E080818160E9
:1012D0008083EAE7F0E0808184608083808182609F
:1012E000808380818E7F808380818068808310925C
:1012F000C1000895833081F028F4813099F0823064
:10130000A1F008958730A9F08830B9F08430D1F485
:10131000809180008F7D03C0809180008F778093C3
:101320008000089584B58F7702C084B58F7D84BD19
:1013300008958091B0008F7703C08091B0008F7DB9
:101340008093B0000895CF93DF9390E0FC01E458C0
:10135000FF4F2491FC01E057FF4F8491882349F10E
:1013600090E0880F991FFC01E854FF4FA591B491BC
:1013700082559F4FFC01C591D4919FB7611108C060
:10138000F8948C91209582238C93888182230AC0C3
:10139000623051F4F8948C91322F309583238C93E2
:1013A0008881822B888304C0F8948C91822B8C9343
:1013B0009FBFDF91CF9108950F931F93CF93DF933A
:1013C0001F92CDB7DEB7282F30E0F901E859FF4F63
:1013D0008491F901E458FF4F1491F901E057FF4F50
:1013E00004910023C9F0882321F069830E947A09BF
:1013F0006981E02FF0E0EE0FFF1FE255FF4FA5914E
:10140000B4919FB7F8948C91611103C0109581231A
:1014100001C0812B8C939FBF0F90DF91CF911F91C3
:101420000F910895CF93DF93282F30E0F901E85909
:10143000FF4F8491F901E458FF4FD491F901E0572F
:10144000FF4FC491CC2391F081110E947A09EC2FB7
:10145000F0E0EE0FFF1FEC55FF4FA591B4912C91DA
:101460002D2381E090E021F480E002C080E090E054
:10147000DF91CF91089508950E943F090E943B0A91
:101480000E94AC00C0E0D0E00E94DA002097E1F3B7
:101490000E940000F9CF0895052E97FB1EF40094DA
:1014A0000E94630A57FD07D00E946B0A07FC03D015
:1014B0004EF40C94630A50954095309521953F4F1A
:1014C0004F4F5F4F089590958095709561957F4F30
:1014D0008F4F9F4F0895A1E21A2EAA1BBB1BFD013F
:1014E0000DC0AA1FBB1FEE1FFF1FA217B307E40703
:1014F000F50720F0A21BB30BE40BF50B661F771F5B
:10150000881F991F1A9469F760957095809590953A
:101510009B01AC01BD01CF010895EE0FFF1F0590A7
:0A152000F491E02D0994F894FFCF38
:10152A008813C409DC05E803C8000D000200170887
:02153A00170890
:00000001FF
